{"contracts/loanDecisioning.sol":{"LoanDecisioning":{"abi":[{"inputs":[{"internalType":"address","name":"_stablecoinAddress","type":"address"}],"stateMutability":"nonpayable","type":"constructor"},{"anonymous":false,"inputs":[{"indexed":true,"internalType":"address","name":"borrower","type":"address"},{"indexed":false,"internalType":"uint256","name":"amount","type":"uint256"}],"name":"LoanRepaid","type":"event"},{"anonymous":false,"inputs":[{"indexed":true,"internalType":"address","name":"borrower","type":"address"},{"indexed":false,"internalType":"uint256","name":"amount","type":"uint256"},{"indexed":false,"internalType":"uint256","name":"interestRate","type":"uint256"},{"indexed":false,"internalType":"uint256","name":"dueDate","type":"uint256"}],"name":"LoanRequested","type":"event"},{"anonymous":false,"inputs":[{"indexed":true,"internalType":"address","name":"previousOwner","type":"address"},{"indexed":true,"internalType":"address","name":"newOwner","type":"address"}],"name":"OwnershipTransferred","type":"event"},{"anonymous":false,"inputs":[{"indexed":true,"internalType":"address","name":"user","type":"address"},{"indexed":false,"internalType":"uint256","name":"newScore","type":"uint256"}],"name":"ReputationUpdated","type":"event"},{"inputs":[{"internalType":"uint256","name":"_amount","type":"uint256"}],"name":"fundLoanPool","outputs":[],"stateMutability":"nonpayable","type":"function"},{"inputs":[{"internalType":"address","name":"user","type":"address"}],"name":"getCreditScore","outputs":[{"internalType":"uint256","name":"","type":"uint256"}],"stateMutability":"view","type":"function"},{"inputs":[],"name":"getLoanPoolBalance","outputs":[{"internalType":"uint256","name":"","type":"uint256"}],"stateMutability":"view","type":"function"},{"inputs":[],"name":"loanPoolBalance","outputs":[{"internalType":"uint256","name":"","type":"uint256"}],"stateMutability":"view","type":"function"},{"inputs":[{"internalType":"address","name":"","type":"address"},{"internalType":"uint256","name":"","type":"uint256"}],"name":"loans","outputs":[{"internalType":"address","name":"borrower","type":"address"},{"internalType":"uint256","name":"amount","type":"uint256"},{"internalType":"uint256","name":"interestRate","type":"uint256"},{"internalType":"uint256","name":"dueDate","type":"uint256"},{"internalType":"bool","name":"isRepaid","type":"bool"}],"stateMutability":"view","type":"function"},{"inputs":[],"name":"owner","outputs":[{"internalType":"address","name":"","type":"address"}],"stateMutability":"view","type":"function"},{"inputs":[],"name":"renounceOwnership","outputs":[],"stateMutability":"nonpayable","type":"function"},{"inputs":[{"internalType":"uint256","name":"loanIndex","type":"uint256"}],"name":"repayLoan","outputs":[],"stateMutability":"nonpayable","type":"function"},{"inputs":[],"name":"reputationThreshold","outputs":[{"internalType":"uint256","name":"","type":"uint256"}],"stateMutability":"view","type":"function"},{"inputs":[{"internalType":"uint256","name":"_amount","type":"uint256"},{"internalType":"uint256","name":"_interestRate","type":"uint256"},{"internalType":"uint256","name":"_duration","type":"uint256"}],"name":"requestLoan","outputs":[],"stateMutability":"nonpayable","type":"function"},{"inputs":[{"internalType":"uint256","name":"_threshold","type":"uint256"}],"name":"setReputationThreshold","outputs":[],"stateMutability":"nonpayable","type":"function"},{"inputs":[],"name":"stablecoin","outputs":[{"internalType":"contract IERC20","name":"","type":"address"}],"stateMutability":"view","type":"function"},{"inputs":[{"internalType":"address","name":"newOwner","type":"address"}],"name":"transferOwnership","outputs":[],"stateMutability":"nonpayable","type":"function"},{"inputs":[{"internalType":"address","name":"","type":"address"}],"name":"users","outputs":[{"internalType":"uint256","name":"reputationScore","type":"uint256"},{"internalType":"uint256","name":"totalLoansTaken","type":"uint256"},{"internalType":"uint256","name":"totalLoansRepaid","type":"uint256"}],"stateMutability":"view","type":"function"}],"evm":{"bytecode":{"linkReferences":{},"object":"608060405260326003553480156200001657600080fd5b5060405162001abf38038062001abf83398181016040528101906200003c9190620001da565b6200005c62000050620000a460201b60201c565b620000ac60201b60201c565b80600160006101000a81548173ffffffffffffffffffffffffffffffffffffffff021916908373ffffffffffffffffffffffffffffffffffffffff160217905550506200020c565b600033905090565b60008060009054906101000a900473ffffffffffffffffffffffffffffffffffffffff169050816000806101000a81548173ffffffffffffffffffffffffffffffffffffffff021916908373ffffffffffffffffffffffffffffffffffffffff1602179055508173ffffffffffffffffffffffffffffffffffffffff168173ffffffffffffffffffffffffffffffffffffffff167f8be0079c531659141344cd1fd0a4f28419497f9722a3daafe3b4186f6b6457e060405160405180910390a35050565b600080fd5b600073ffffffffffffffffffffffffffffffffffffffff82169050919050565b6000620001a28262000175565b9050919050565b620001b48162000195565b8114620001c057600080fd5b50565b600081519050620001d481620001a9565b92915050565b600060208284031215620001f357620001f262000170565b5b60006200020384828501620001c3565b91505092915050565b6118a3806200021c6000396000f3fe608060405234801561001057600080fd5b50600436106100ea5760003560e01c8063ab7b1c891161008c578063d410e8ba11610066578063d410e8ba1461023d578063e9cbd8221461025b578063edadbbfe14610279578063f2fde38b14610295576100ea565b8063ab7b1c89146101d5578063ca4cb29a146101f1578063d3dd2bdf1461020d576100ea565b8063715018a6116100c8578063715018a6146101475780638da5cb5b1461015157806398c61c371461016f578063a87430ba146101a3576100ea565b80632bdf6f83146100ef578063315ecb641461010d5780635e6a367414610129575b600080fd5b6100f76102b1565b6040516101049190610f33565b60405180910390f35b61012760048036038101906101229190610f7f565b610354565b005b610131610366565b60405161013e9190610f33565b60405180910390f35b61014f61036c565b005b610159610380565b6040516101669190610fed565b60405180910390f35b61018960048036038101906101849190611034565b6103a9565b60405161019a95949392919061108f565b60405180910390f35b6101bd60048036038101906101b891906110e2565b610429565b6040516101cc9392919061110f565b60405180910390f35b6101ef60048036038101906101ea9190610f7f565b610453565b005b61020b60048036038101906102069190610f7f565b610815565b005b610227600480360381019061022291906110e2565b61091a565b6040516102349190610f33565b60405180910390f35b610245610966565b6040516102529190610f33565b60405180910390f35b61026361096c565b60405161027091906111a5565b60405180910390f35b610293600480360381019061028e91906111c0565b610992565b005b6102af60048036038101906102aa91906110e2565b610d4d565b005b6000600160009054906101000a900473ffffffffffffffffffffffffffffffffffffffff1673ffffffffffffffffffffffffffffffffffffffff166370a08231306040518263ffffffff1660e01b815260040161030e9190610fed565b602060405180830381865afa15801561032b573d6000803e3d6000fd5b505050506040513d601f19601f8201168201806040525081019061034f9190611228565b905090565b61035c610dd0565b8060038190555050565b60025481565b610374610dd0565b61037e6000610e4e565b565b60008060009054906101000a900473ffffffffffffffffffffffffffffffffffffffff16905090565b600460205281600052604060002081815481106103c557600080fd5b9060005260206000209060050201600091509150508060000160009054906101000a900473ffffffffffffffffffffffffffffffffffffffff16908060010154908060020154908060030154908060040160009054906101000a900460ff16905085565b60056020528060005260406000206000915090508060000154908060010154908060020154905083565b6000600460003373ffffffffffffffffffffffffffffffffffffffff1673ffffffffffffffffffffffffffffffffffffffff16815260200190815260200160002082815481106104a6576104a5611255565b5b906000526020600020906005020190508060040160009054906101000a900460ff1615610508576040517f08c379a00000000000000000000000000000000000000000000000000000000081526004016104ff906112e1565b60405180910390fd5b806003015442111561054f576040517f08c379a00000000000000000000000000000000000000000000000000000000081526004016105469061134d565b60405180910390fd5b6000606482600201548360010154610567919061139c565b610571919061140d565b8260010154610580919061143e565b9050600160009054906101000a900473ffffffffffffffffffffffffffffffffffffffff1673ffffffffffffffffffffffffffffffffffffffff166323b872dd3330846040518463ffffffff1660e01b81526004016105e193929190611472565b6020604051808303816000875af1158015610600573d6000803e3d6000fd5b505050506040513d601f19601f8201168201806040525081019061062491906114d5565b610663576040517f08c379a000000000000000000000000000000000000000000000000000000000815260040161065a9061154e565b60405180910390fd5b60018260040160006101000a81548160ff021916908315150217905550600560003373ffffffffffffffffffffffffffffffffffffffff1673ffffffffffffffffffffffffffffffffffffffff16815260200190815260200160002060020160008154809291906106d39061156e565b9190505550600a600560003373ffffffffffffffffffffffffffffffffffffffff1673ffffffffffffffffffffffffffffffffffffffff168152602001908152602001600020600001600082825461072b919061143e565b925050819055503373ffffffffffffffffffffffffffffffffffffffff167fc200a1f31dd659e356e0f112c82558e25f49f7b0f84438691cd96f5cb3558823826040516107789190610f33565b60405180910390a23373ffffffffffffffffffffffffffffffffffffffff167ffc577563f1b9a0461e24abef1e1fcc0d33d3d881f20b5df6dda59de4aae2c821600560003373ffffffffffffffffffffffffffffffffffffffff1673ffffffffffffffffffffffffffffffffffffffff168152602001908152602001600020600001546040516108089190610f33565b60405180910390a2505050565b61081d610dd0565b600160009054906101000a900473ffffffffffffffffffffffffffffffffffffffff1673ffffffffffffffffffffffffffffffffffffffff166323b872dd3330846040518463ffffffff1660e01b815260040161087c93929190611472565b6020604051808303816000875af115801561089b573d6000803e3d6000fd5b505050506040513d601f19601f820116820180604052508101906108bf91906114d5565b6108fe576040517f08c379a00000000000000000000000000000000000000000000000000000000081526004016108f590611602565b60405180910390fd5b8060026000828254610910919061143e565b9250508190555050565b6000600560008373ffffffffffffffffffffffffffffffffffffffff1673ffffffffffffffffffffffffffffffffffffffff168152602001908152602001600020600001549050919050565b60035481565b600160009054906101000a900473ffffffffffffffffffffffffffffffffffffffff1681565b60035461099e3361091a565b10156109df576040517f08c379a00000000000000000000000000000000000000000000000000000000081526004016109d690611694565b60405180910390fd5b82600160009054906101000a900473ffffffffffffffffffffffffffffffffffffffff1673ffffffffffffffffffffffffffffffffffffffff166370a08231306040518263ffffffff1660e01b8152600401610a3b9190610fed565b602060405180830381865afa158015610a58573d6000803e3d6000fd5b505050506040513d601f19601f82011682018060405250810190610a7c9190611228565b1015610abd576040517f08c379a0000000000000000000000000000000000000000000000000000000008152600401610ab490611726565b60405180910390fd5b60008142610acb919061143e565b9050600460003373ffffffffffffffffffffffffffffffffffffffff1673ffffffffffffffffffffffffffffffffffffffff1681526020019081526020016000206040518060a001604052803373ffffffffffffffffffffffffffffffffffffffff16815260200186815260200185815260200183815260200160001515815250908060018154018082558091505060019003906000526020600020906005020160009091909190915060008201518160000160006101000a81548173ffffffffffffffffffffffffffffffffffffffff021916908373ffffffffffffffffffffffffffffffffffffffff16021790555060208201518160010155604082015181600201556060820151816003015560808201518160040160006101000a81548160ff0219169083151502179055505050600560003373ffffffffffffffffffffffffffffffffffffffff1673ffffffffffffffffffffffffffffffffffffffff1681526020019081526020016000206001016000815480929190610c4f9061156e565b9190505550600160009054906101000a900473ffffffffffffffffffffffffffffffffffffffff1673ffffffffffffffffffffffffffffffffffffffff1663a9059cbb33866040518363ffffffff1660e01b8152600401610cb1929190611746565b6020604051808303816000875af1158015610cd0573d6000803e3d6000fd5b505050506040513d601f19601f82011682018060405250810190610cf491906114d5565b503373ffffffffffffffffffffffffffffffffffffffff167f470e775e4fa2bd975947314dc912d0dd85338d809a6b967e36382e32a3b6f2bb858584604051610d3f9392919061110f565b60405180910390a250505050565b610d55610dd0565b600073ffffffffffffffffffffffffffffffffffffffff168173ffffffffffffffffffffffffffffffffffffffff1603610dc4576040517f08c379a0000000000000000000000000000000000000000000000000000000008152600401610dbb906117e1565b60405180910390fd5b610dcd81610e4e565b50565b610dd8610f12565b73ffffffffffffffffffffffffffffffffffffffff16610df6610380565b73ffffffffffffffffffffffffffffffffffffffff1614610e4c576040517f08c379a0000000000000000000000000000000000000000000000000000000008152600401610e439061184d565b60405180910390fd5b565b60008060009054906101000a900473ffffffffffffffffffffffffffffffffffffffff169050816000806101000a81548173ffffffffffffffffffffffffffffffffffffffff021916908373ffffffffffffffffffffffffffffffffffffffff1602179055508173ffffffffffffffffffffffffffffffffffffffff168173ffffffffffffffffffffffffffffffffffffffff167f8be0079c531659141344cd1fd0a4f28419497f9722a3daafe3b4186f6b6457e060405160405180910390a35050565b600033905090565b6000819050919050565b610f2d81610f1a565b82525050565b6000602082019050610f486000830184610f24565b92915050565b600080fd5b610f5c81610f1a565b8114610f6757600080fd5b50565b600081359050610f7981610f53565b92915050565b600060208284031215610f9557610f94610f4e565b5b6000610fa384828501610f6a565b91505092915050565b600073ffffffffffffffffffffffffffffffffffffffff82169050919050565b6000610fd782610fac565b9050919050565b610fe781610fcc565b82525050565b60006020820190506110026000830184610fde565b92915050565b61101181610fcc565b811461101c57600080fd5b50565b60008135905061102e81611008565b92915050565b6000806040838503121561104b5761104a610f4e565b5b60006110598582860161101f565b925050602061106a85828601610f6a565b9150509250929050565b60008115159050919050565b61108981611074565b82525050565b600060a0820190506110a46000830188610fde565b6110b16020830187610f24565b6110be6040830186610f24565b6110cb6060830185610f24565b6110d86080830184611080565b9695505050505050565b6000602082840312156110f8576110f7610f4e565b5b60006111068482850161101f565b91505092915050565b60006060820190506111246000830186610f24565b6111316020830185610f24565b61113e6040830184610f24565b949350505050565b6000819050919050565b600061116b61116661116184610fac565b611146565b610fac565b9050919050565b600061117d82611150565b9050919050565b600061118f82611172565b9050919050565b61119f81611184565b82525050565b60006020820190506111ba6000830184611196565b92915050565b6000806000606084860312156111d9576111d8610f4e565b5b60006111e786828701610f6a565b93505060206111f886828701610f6a565b925050604061120986828701610f6a565b9150509250925092565b60008151905061122281610f53565b92915050565b60006020828403121561123e5761123d610f4e565b5b600061124c84828501611213565b91505092915050565b7f4e487b7100000000000000000000000000000000000000000000000000000000600052603260045260246000fd5b600082825260208201905092915050565b7f4c6f616e20616c7265616479207265706169642e000000000000000000000000600082015250565b60006112cb601483611284565b91506112d682611295565b602082019050919050565b600060208201905081810360008301526112fa816112be565b9050919050565b7f4c6f616e20647565206461746520686173207061737365642100000000000000600082015250565b6000611337601983611284565b915061134282611301565b602082019050919050565b600060208201905081810360008301526113668161132a565b9050919050565b7f4e487b7100000000000000000000000000000000000000000000000000000000600052601160045260246000fd5b60006113a782610f1a565b91506113b283610f1a565b92508282026113c081610f1a565b915082820484148315176113d7576113d661136d565b5b5092915050565b7f4e487b7100000000000000000000000000000000000000000000000000000000600052601260045260246000fd5b600061141882610f1a565b915061142383610f1a565b925082611433576114326113de565b5b828204905092915050565b600061144982610f1a565b915061145483610f1a565b925082820190508082111561146c5761146b61136d565b5b92915050565b60006060820190506114876000830186610fde565b6114946020830185610fde565b6114a16040830184610f24565b949350505050565b6114b281611074565b81146114bd57600080fd5b50565b6000815190506114cf816114a9565b92915050565b6000602082840312156114eb576114ea610f4e565b5b60006114f9848285016114c0565b91505092915050565b7f52657061796d656e74206661696c65642e000000000000000000000000000000600082015250565b6000611538601183611284565b915061154382611502565b602082019050919050565b600060208201905081810360008301526115678161152b565b9050919050565b600061157982610f1a565b91507fffffffffffffffffffffffffffffffffffffffffffffffffffffffffffffffff82036115ab576115aa61136d565b5b600182019050919050565b7f46756e64696e67206661696c65642e0000000000000000000000000000000000600082015250565b60006115ec600f83611284565b91506115f7826115b6565b602082019050919050565b6000602082019050818103600083015261161b816115df565b9050919050565b7f496e73756666696369656e742072657075746174696f6e2073636f726520666f60008201527f72206c6f616e2e00000000000000000000000000000000000000000000000000602082015250565b600061167e602783611284565b915061168982611622565b604082019050919050565b600060208201905081810360008301526116ad81611671565b9050919050565b7f4e6f7420656e6f7567682066756e647320696e20746865206c6f616e20706f6f60008201527f6c2e000000000000000000000000000000000000000000000000000000000000602082015250565b6000611710602283611284565b915061171b826116b4565b604082019050919050565b6000602082019050818103600083015261173f81611703565b9050919050565b600060408201905061175b6000830185610fde565b6117686020830184610f24565b9392505050565b7f4f776e61626c653a206e6577206f776e657220697320746865207a65726f206160008201527f6464726573730000000000000000000000000000000000000000000000000000602082015250565b60006117cb602683611284565b91506117d68261176f565b604082019050919050565b600060208201905081810360008301526117fa816117be565b9050919050565b7f4f776e61626c653a2063616c6c6572206973206e6f7420746865206f776e6572600082015250565b6000611837602083611284565b915061184282611801565b602082019050919050565b600060208201905081810360008301526118668161182a565b905091905056fea26469706673582212206ac7dc45303b5a86a5af2af99bc22955ff84d11f94908c8b8f34380763c06c0064736f6c63430008140033","opcodes":"PUSH1 0x80 PUSH1 0x40 MSTORE PUSH1 0x32 PUSH1 0x3 SSTORE CALLVALUE DUP1 ISZERO PUSH3 0x16 JUMPI PUSH1 0x0 DUP1 REVERT JUMPDEST POP PUSH1 0x40 MLOAD PUSH3 0x1ABF CODESIZE SUB DUP1 PUSH3 0x1ABF DUP4 CODECOPY DUP2 DUP2 ADD PUSH1 0x40 MSTORE DUP2 ADD SWAP1 PUSH3 0x3C SWAP2 SWAP1 PUSH3 0x1DA JUMP JUMPDEST PUSH3 0x5C PUSH3 0x50 PUSH3 0xA4 PUSH1 0x20 SHL PUSH1 0x20 SHR JUMP JUMPDEST PUSH3 0xAC PUSH1 0x20 SHL PUSH1 0x20 SHR JUMP JUMPDEST DUP1 PUSH1 0x1 PUSH1 0x0 PUSH2 0x100 EXP DUP2 SLOAD DUP2 PUSH20 0xFFFFFFFFFFFFFFFFFFFFFFFFFFFFFFFFFFFFFFFF MUL NOT AND SWAP1 DUP4 PUSH20 0xFFFFFFFFFFFFFFFFFFFFFFFFFFFFFFFFFFFFFFFF AND MUL OR SWAP1 SSTORE POP POP PUSH3 0x20C JUMP JUMPDEST PUSH1 0x0 CALLER SWAP1 POP SWAP1 JUMP JUMPDEST PUSH1 0x0 DUP1 PUSH1 0x0 SWAP1 SLOAD SWAP1 PUSH2 0x100 EXP SWAP1 DIV PUSH20 0xFFFFFFFFFFFFFFFFFFFFFFFFFFFFFFFFFFFFFFFF AND SWAP1 POP DUP2 PUSH1 0x0 DUP1 PUSH2 0x100 EXP DUP2 SLOAD DUP2 PUSH20 0xFFFFFFFFFFFFFFFFFFFFFFFFFFFFFFFFFFFFFFFF MUL NOT AND SWAP1 DUP4 PUSH20 0xFFFFFFFFFFFFFFFFFFFFFFFFFFFFFFFFFFFFFFFF AND MUL OR SWAP1 SSTORE POP DUP2 PUSH20 0xFFFFFFFFFFFFFFFFFFFFFFFFFFFFFFFFFFFFFFFF AND DUP2 PUSH20 0xFFFFFFFFFFFFFFFFFFFFFFFFFFFFFFFFFFFFFFFF AND PUSH32 0x8BE0079C531659141344CD1FD0A4F28419497F9722A3DAAFE3B4186F6B6457E0 PUSH1 0x40 MLOAD PUSH1 0x40 MLOAD DUP1 SWAP2 SUB SWAP1 LOG3 POP POP JUMP JUMPDEST PUSH1 0x0 DUP1 REVERT JUMPDEST PUSH1 0x0 PUSH20 0xFFFFFFFFFFFFFFFFFFFFFFFFFFFFFFFFFFFFFFFF DUP3 AND SWAP1 POP SWAP2 SWAP1 POP JUMP JUMPDEST PUSH1 0x0 PUSH3 0x1A2 DUP3 PUSH3 0x175 JUMP JUMPDEST SWAP1 POP SWAP2 SWAP1 POP JUMP JUMPDEST PUSH3 0x1B4 DUP2 PUSH3 0x195 JUMP JUMPDEST DUP2 EQ PUSH3 0x1C0 JUMPI PUSH1 0x0 DUP1 REVERT JUMPDEST POP JUMP JUMPDEST PUSH1 0x0 DUP2 MLOAD SWAP1 POP PUSH3 0x1D4 DUP2 PUSH3 0x1A9 JUMP JUMPDEST SWAP3 SWAP2 POP POP JUMP JUMPDEST PUSH1 0x0 PUSH1 0x20 DUP3 DUP5 SUB SLT ISZERO PUSH3 0x1F3 JUMPI PUSH3 0x1F2 PUSH3 0x170 JUMP JUMPDEST JUMPDEST PUSH1 0x0 PUSH3 0x203 DUP5 DUP3 DUP6 ADD PUSH3 0x1C3 JUMP JUMPDEST SWAP2 POP POP SWAP3 SWAP2 POP POP JUMP JUMPDEST PUSH2 0x18A3 DUP1 PUSH3 0x21C PUSH1 0x0 CODECOPY PUSH1 0x0 RETURN INVALID PUSH1 0x80 PUSH1 0x40 MSTORE CALLVALUE DUP1 ISZERO PUSH2 0x10 JUMPI PUSH1 0x0 DUP1 REVERT JUMPDEST POP PUSH1 0x4 CALLDATASIZE LT PUSH2 0xEA JUMPI PUSH1 0x0 CALLDATALOAD PUSH1 0xE0 SHR DUP1 PUSH4 0xAB7B1C89 GT PUSH2 0x8C JUMPI DUP1 PUSH4 0xD410E8BA GT PUSH2 0x66 JUMPI DUP1 PUSH4 0xD410E8BA EQ PUSH2 0x23D JUMPI DUP1 PUSH4 0xE9CBD822 EQ PUSH2 0x25B JUMPI DUP1 PUSH4 0xEDADBBFE EQ PUSH2 0x279 JUMPI DUP1 PUSH4 0xF2FDE38B EQ PUSH2 0x295 JUMPI PUSH2 0xEA JUMP JUMPDEST DUP1 PUSH4 0xAB7B1C89 EQ PUSH2 0x1D5 JUMPI DUP1 PUSH4 0xCA4CB29A EQ PUSH2 0x1F1 JUMPI DUP1 PUSH4 0xD3DD2BDF EQ PUSH2 0x20D JUMPI PUSH2 0xEA JUMP JUMPDEST DUP1 PUSH4 0x715018A6 GT PUSH2 0xC8 JUMPI DUP1 PUSH4 0x715018A6 EQ PUSH2 0x147 JUMPI DUP1 PUSH4 0x8DA5CB5B EQ PUSH2 0x151 JUMPI DUP1 PUSH4 0x98C61C37 EQ PUSH2 0x16F JUMPI DUP1 PUSH4 0xA87430BA EQ PUSH2 0x1A3 JUMPI PUSH2 0xEA JUMP JUMPDEST DUP1 PUSH4 0x2BDF6F83 EQ PUSH2 0xEF JUMPI DUP1 PUSH4 0x315ECB64 EQ PUSH2 0x10D JUMPI DUP1 PUSH4 0x5E6A3674 EQ PUSH2 0x129 JUMPI JUMPDEST PUSH1 0x0 DUP1 REVERT JUMPDEST PUSH2 0xF7 PUSH2 0x2B1 JUMP JUMPDEST PUSH1 0x40 MLOAD PUSH2 0x104 SWAP2 SWAP1 PUSH2 0xF33 JUMP JUMPDEST PUSH1 0x40 MLOAD DUP1 SWAP2 SUB SWAP1 RETURN JUMPDEST PUSH2 0x127 PUSH1 0x4 DUP1 CALLDATASIZE SUB DUP2 ADD SWAP1 PUSH2 0x122 SWAP2 SWAP1 PUSH2 0xF7F JUMP JUMPDEST PUSH2 0x354 JUMP JUMPDEST STOP JUMPDEST PUSH2 0x131 PUSH2 0x366 JUMP JUMPDEST PUSH1 0x40 MLOAD PUSH2 0x13E SWAP2 SWAP1 PUSH2 0xF33 JUMP JUMPDEST PUSH1 0x40 MLOAD DUP1 SWAP2 SUB SWAP1 RETURN JUMPDEST PUSH2 0x14F PUSH2 0x36C JUMP JUMPDEST STOP JUMPDEST PUSH2 0x159 PUSH2 0x380 JUMP JUMPDEST PUSH1 0x40 MLOAD PUSH2 0x166 SWAP2 SWAP1 PUSH2 0xFED JUMP JUMPDEST PUSH1 0x40 MLOAD DUP1 SWAP2 SUB SWAP1 RETURN JUMPDEST PUSH2 0x189 PUSH1 0x4 DUP1 CALLDATASIZE SUB DUP2 ADD SWAP1 PUSH2 0x184 SWAP2 SWAP1 PUSH2 0x1034 JUMP JUMPDEST PUSH2 0x3A9 JUMP JUMPDEST PUSH1 0x40 MLOAD PUSH2 0x19A SWAP6 SWAP5 SWAP4 SWAP3 SWAP2 SWAP1 PUSH2 0x108F JUMP JUMPDEST PUSH1 0x40 MLOAD DUP1 SWAP2 SUB SWAP1 RETURN JUMPDEST PUSH2 0x1BD PUSH1 0x4 DUP1 CALLDATASIZE SUB DUP2 ADD SWAP1 PUSH2 0x1B8 SWAP2 SWAP1 PUSH2 0x10E2 JUMP JUMPDEST PUSH2 0x429 JUMP JUMPDEST PUSH1 0x40 MLOAD PUSH2 0x1CC SWAP4 SWAP3 SWAP2 SWAP1 PUSH2 0x110F JUMP JUMPDEST PUSH1 0x40 MLOAD DUP1 SWAP2 SUB SWAP1 RETURN JUMPDEST PUSH2 0x1EF PUSH1 0x4 DUP1 CALLDATASIZE SUB DUP2 ADD SWAP1 PUSH2 0x1EA SWAP2 SWAP1 PUSH2 0xF7F JUMP JUMPDEST PUSH2 0x453 JUMP JUMPDEST STOP JUMPDEST PUSH2 0x20B PUSH1 0x4 DUP1 CALLDATASIZE SUB DUP2 ADD SWAP1 PUSH2 0x206 SWAP2 SWAP1 PUSH2 0xF7F JUMP JUMPDEST PUSH2 0x815 JUMP JUMPDEST STOP JUMPDEST PUSH2 0x227 PUSH1 0x4 DUP1 CALLDATASIZE SUB DUP2 ADD SWAP1 PUSH2 0x222 SWAP2 SWAP1 PUSH2 0x10E2 JUMP JUMPDEST PUSH2 0x91A JUMP JUMPDEST PUSH1 0x40 MLOAD PUSH2 0x234 SWAP2 SWAP1 PUSH2 0xF33 JUMP JUMPDEST PUSH1 0x40 MLOAD DUP1 SWAP2 SUB SWAP1 RETURN JUMPDEST PUSH2 0x245 PUSH2 0x966 JUMP JUMPDEST PUSH1 0x40 MLOAD PUSH2 0x252 SWAP2 SWAP1 PUSH2 0xF33 JUMP JUMPDEST PUSH1 0x40 MLOAD DUP1 SWAP2 SUB SWAP1 RETURN JUMPDEST PUSH2 0x263 PUSH2 0x96C JUMP JUMPDEST PUSH1 0x40 MLOAD PUSH2 0x270 SWAP2 SWAP1 PUSH2 0x11A5 JUMP JUMPDEST PUSH1 0x40 MLOAD DUP1 SWAP2 SUB SWAP1 RETURN JUMPDEST PUSH2 0x293 PUSH1 0x4 DUP1 CALLDATASIZE SUB DUP2 ADD SWAP1 PUSH2 0x28E SWAP2 SWAP1 PUSH2 0x11C0 JUMP JUMPDEST PUSH2 0x992 JUMP JUMPDEST STOP JUMPDEST PUSH2 0x2AF PUSH1 0x4 DUP1 CALLDATASIZE SUB DUP2 ADD SWAP1 PUSH2 0x2AA SWAP2 SWAP1 PUSH2 0x10E2 JUMP JUMPDEST PUSH2 0xD4D JUMP JUMPDEST STOP JUMPDEST PUSH1 0x0 PUSH1 0x1 PUSH1 0x0 SWAP1 SLOAD SWAP1 PUSH2 0x100 EXP SWAP1 DIV PUSH20 0xFFFFFFFFFFFFFFFFFFFFFFFFFFFFFFFFFFFFFFFF AND PUSH20 0xFFFFFFFFFFFFFFFFFFFFFFFFFFFFFFFFFFFFFFFF AND PUSH4 0x70A08231 ADDRESS PUSH1 0x40 MLOAD DUP3 PUSH4 0xFFFFFFFF AND PUSH1 0xE0 SHL DUP2 MSTORE PUSH1 0x4 ADD PUSH2 0x30E SWAP2 SWAP1 PUSH2 0xFED JUMP JUMPDEST PUSH1 0x20 PUSH1 0x40 MLOAD DUP1 DUP4 SUB DUP2 DUP7 GAS STATICCALL ISZERO DUP1 ISZERO PUSH2 0x32B JUMPI RETURNDATASIZE PUSH1 0x0 DUP1 RETURNDATACOPY RETURNDATASIZE PUSH1 0x0 REVERT JUMPDEST POP POP POP POP PUSH1 0x40 MLOAD RETURNDATASIZE PUSH1 0x1F NOT PUSH1 0x1F DUP3 ADD AND DUP3 ADD DUP1 PUSH1 0x40 MSTORE POP DUP2 ADD SWAP1 PUSH2 0x34F SWAP2 SWAP1 PUSH2 0x1228 JUMP JUMPDEST SWAP1 POP SWAP1 JUMP JUMPDEST PUSH2 0x35C PUSH2 0xDD0 JUMP JUMPDEST DUP1 PUSH1 0x3 DUP2 SWAP1 SSTORE POP POP JUMP JUMPDEST PUSH1 0x2 SLOAD DUP2 JUMP JUMPDEST PUSH2 0x374 PUSH2 0xDD0 JUMP JUMPDEST PUSH2 0x37E PUSH1 0x0 PUSH2 0xE4E JUMP JUMPDEST JUMP JUMPDEST PUSH1 0x0 DUP1 PUSH1 0x0 SWAP1 SLOAD SWAP1 PUSH2 0x100 EXP SWAP1 DIV PUSH20 0xFFFFFFFFFFFFFFFFFFFFFFFFFFFFFFFFFFFFFFFF AND SWAP1 POP SWAP1 JUMP JUMPDEST PUSH1 0x4 PUSH1 0x20 MSTORE DUP2 PUSH1 0x0 MSTORE PUSH1 0x40 PUSH1 0x0 KECCAK256 DUP2 DUP2 SLOAD DUP2 LT PUSH2 0x3C5 JUMPI PUSH1 0x0 DUP1 REVERT JUMPDEST SWAP1 PUSH1 0x0 MSTORE PUSH1 0x20 PUSH1 0x0 KECCAK256 SWAP1 PUSH1 0x5 MUL ADD PUSH1 0x0 SWAP2 POP SWAP2 POP POP DUP1 PUSH1 0x0 ADD PUSH1 0x0 SWAP1 SLOAD SWAP1 PUSH2 0x100 EXP SWAP1 DIV PUSH20 0xFFFFFFFFFFFFFFFFFFFFFFFFFFFFFFFFFFFFFFFF AND SWAP1 DUP1 PUSH1 0x1 ADD SLOAD SWAP1 DUP1 PUSH1 0x2 ADD SLOAD SWAP1 DUP1 PUSH1 0x3 ADD SLOAD SWAP1 DUP1 PUSH1 0x4 ADD PUSH1 0x0 SWAP1 SLOAD SWAP1 PUSH2 0x100 EXP SWAP1 DIV PUSH1 0xFF AND SWAP1 POP DUP6 JUMP JUMPDEST PUSH1 0x5 PUSH1 0x20 MSTORE DUP1 PUSH1 0x0 MSTORE PUSH1 0x40 PUSH1 0x0 KECCAK256 PUSH1 0x0 SWAP2 POP SWAP1 POP DUP1 PUSH1 0x0 ADD SLOAD SWAP1 DUP1 PUSH1 0x1 ADD SLOAD SWAP1 DUP1 PUSH1 0x2 ADD SLOAD SWAP1 POP DUP4 JUMP JUMPDEST PUSH1 0x0 PUSH1 0x4 PUSH1 0x0 CALLER PUSH20 0xFFFFFFFFFFFFFFFFFFFFFFFFFFFFFFFFFFFFFFFF AND PUSH20 0xFFFFFFFFFFFFFFFFFFFFFFFFFFFFFFFFFFFFFFFF AND DUP2 MSTORE PUSH1 0x20 ADD SWAP1 DUP2 MSTORE PUSH1 0x20 ADD PUSH1 0x0 KECCAK256 DUP3 DUP2 SLOAD DUP2 LT PUSH2 0x4A6 JUMPI PUSH2 0x4A5 PUSH2 0x1255 JUMP JUMPDEST JUMPDEST SWAP1 PUSH1 0x0 MSTORE PUSH1 0x20 PUSH1 0x0 KECCAK256 SWAP1 PUSH1 0x5 MUL ADD SWAP1 POP DUP1 PUSH1 0x4 ADD PUSH1 0x0 SWAP1 SLOAD SWAP1 PUSH2 0x100 EXP SWAP1 DIV PUSH1 0xFF AND ISZERO PUSH2 0x508 JUMPI PUSH1 0x40 MLOAD PUSH32 0x8C379A000000000000000000000000000000000000000000000000000000000 DUP2 MSTORE PUSH1 0x4 ADD PUSH2 0x4FF SWAP1 PUSH2 0x12E1 JUMP JUMPDEST PUSH1 0x40 MLOAD DUP1 SWAP2 SUB SWAP1 REVERT JUMPDEST DUP1 PUSH1 0x3 ADD SLOAD TIMESTAMP GT ISZERO PUSH2 0x54F JUMPI PUSH1 0x40 MLOAD PUSH32 0x8C379A000000000000000000000000000000000000000000000000000000000 DUP2 MSTORE PUSH1 0x4 ADD PUSH2 0x546 SWAP1 PUSH2 0x134D JUMP JUMPDEST PUSH1 0x40 MLOAD DUP1 SWAP2 SUB SWAP1 REVERT JUMPDEST PUSH1 0x0 PUSH1 0x64 DUP3 PUSH1 0x2 ADD SLOAD DUP4 PUSH1 0x1 ADD SLOAD PUSH2 0x567 SWAP2 SWAP1 PUSH2 0x139C JUMP JUMPDEST PUSH2 0x571 SWAP2 SWAP1 PUSH2 0x140D JUMP JUMPDEST DUP3 PUSH1 0x1 ADD SLOAD PUSH2 0x580 SWAP2 SWAP1 PUSH2 0x143E JUMP JUMPDEST SWAP1 POP PUSH1 0x1 PUSH1 0x0 SWAP1 SLOAD SWAP1 PUSH2 0x100 EXP SWAP1 DIV PUSH20 0xFFFFFFFFFFFFFFFFFFFFFFFFFFFFFFFFFFFFFFFF AND PUSH20 0xFFFFFFFFFFFFFFFFFFFFFFFFFFFFFFFFFFFFFFFF AND PUSH4 0x23B872DD CALLER ADDRESS DUP5 PUSH1 0x40 MLOAD DUP5 PUSH4 0xFFFFFFFF AND PUSH1 0xE0 SHL DUP2 MSTORE PUSH1 0x4 ADD PUSH2 0x5E1 SWAP4 SWAP3 SWAP2 SWAP1 PUSH2 0x1472 JUMP JUMPDEST PUSH1 0x20 PUSH1 0x40 MLOAD DUP1 DUP4 SUB DUP2 PUSH1 0x0 DUP8 GAS CALL ISZERO DUP1 ISZERO PUSH2 0x600 JUMPI RETURNDATASIZE PUSH1 0x0 DUP1 RETURNDATACOPY RETURNDATASIZE PUSH1 0x0 REVERT JUMPDEST POP POP POP POP PUSH1 0x40 MLOAD RETURNDATASIZE PUSH1 0x1F NOT PUSH1 0x1F DUP3 ADD AND DUP3 ADD DUP1 PUSH1 0x40 MSTORE POP DUP2 ADD SWAP1 PUSH2 0x624 SWAP2 SWAP1 PUSH2 0x14D5 JUMP JUMPDEST PUSH2 0x663 JUMPI PUSH1 0x40 MLOAD PUSH32 0x8C379A000000000000000000000000000000000000000000000000000000000 DUP2 MSTORE PUSH1 0x4 ADD PUSH2 0x65A SWAP1 PUSH2 0x154E JUMP JUMPDEST PUSH1 0x40 MLOAD DUP1 SWAP2 SUB SWAP1 REVERT JUMPDEST PUSH1 0x1 DUP3 PUSH1 0x4 ADD PUSH1 0x0 PUSH2 0x100 EXP DUP2 SLOAD DUP2 PUSH1 0xFF MUL NOT AND SWAP1 DUP4 ISZERO ISZERO MUL OR SWAP1 SSTORE POP PUSH1 0x5 PUSH1 0x0 CALLER PUSH20 0xFFFFFFFFFFFFFFFFFFFFFFFFFFFFFFFFFFFFFFFF AND PUSH20 0xFFFFFFFFFFFFFFFFFFFFFFFFFFFFFFFFFFFFFFFF AND DUP2 MSTORE PUSH1 0x20 ADD SWAP1 DUP2 MSTORE PUSH1 0x20 ADD PUSH1 0x0 KECCAK256 PUSH1 0x2 ADD PUSH1 0x0 DUP2 SLOAD DUP1 SWAP3 SWAP2 SWAP1 PUSH2 0x6D3 SWAP1 PUSH2 0x156E JUMP JUMPDEST SWAP2 SWAP1 POP SSTORE POP PUSH1 0xA PUSH1 0x5 PUSH1 0x0 CALLER PUSH20 0xFFFFFFFFFFFFFFFFFFFFFFFFFFFFFFFFFFFFFFFF AND PUSH20 0xFFFFFFFFFFFFFFFFFFFFFFFFFFFFFFFFFFFFFFFF AND DUP2 MSTORE PUSH1 0x20 ADD SWAP1 DUP2 MSTORE PUSH1 0x20 ADD PUSH1 0x0 KECCAK256 PUSH1 0x0 ADD PUSH1 0x0 DUP3 DUP3 SLOAD PUSH2 0x72B SWAP2 SWAP1 PUSH2 0x143E JUMP JUMPDEST SWAP3 POP POP DUP2 SWAP1 SSTORE POP CALLER PUSH20 0xFFFFFFFFFFFFFFFFFFFFFFFFFFFFFFFFFFFFFFFF AND PUSH32 0xC200A1F31DD659E356E0F112C82558E25F49F7B0F84438691CD96F5CB3558823 DUP3 PUSH1 0x40 MLOAD PUSH2 0x778 SWAP2 SWAP1 PUSH2 0xF33 JUMP JUMPDEST PUSH1 0x40 MLOAD DUP1 SWAP2 SUB SWAP1 LOG2 CALLER PUSH20 0xFFFFFFFFFFFFFFFFFFFFFFFFFFFFFFFFFFFFFFFF AND PUSH32 0xFC577563F1B9A0461E24ABEF1E1FCC0D33D3D881F20B5DF6DDA59DE4AAE2C821 PUSH1 0x5 PUSH1 0x0 CALLER PUSH20 0xFFFFFFFFFFFFFFFFFFFFFFFFFFFFFFFFFFFFFFFF AND PUSH20 0xFFFFFFFFFFFFFFFFFFFFFFFFFFFFFFFFFFFFFFFF AND DUP2 MSTORE PUSH1 0x20 ADD SWAP1 DUP2 MSTORE PUSH1 0x20 ADD PUSH1 0x0 KECCAK256 PUSH1 0x0 ADD SLOAD PUSH1 0x40 MLOAD PUSH2 0x808 SWAP2 SWAP1 PUSH2 0xF33 JUMP JUMPDEST PUSH1 0x40 MLOAD DUP1 SWAP2 SUB SWAP1 LOG2 POP POP POP JUMP JUMPDEST PUSH2 0x81D PUSH2 0xDD0 JUMP JUMPDEST PUSH1 0x1 PUSH1 0x0 SWAP1 SLOAD SWAP1 PUSH2 0x100 EXP SWAP1 DIV PUSH20 0xFFFFFFFFFFFFFFFFFFFFFFFFFFFFFFFFFFFFFFFF AND PUSH20 0xFFFFFFFFFFFFFFFFFFFFFFFFFFFFFFFFFFFFFFFF AND PUSH4 0x23B872DD CALLER ADDRESS DUP5 PUSH1 0x40 MLOAD DUP5 PUSH4 0xFFFFFFFF AND PUSH1 0xE0 SHL DUP2 MSTORE PUSH1 0x4 ADD PUSH2 0x87C SWAP4 SWAP3 SWAP2 SWAP1 PUSH2 0x1472 JUMP JUMPDEST PUSH1 0x20 PUSH1 0x40 MLOAD DUP1 DUP4 SUB DUP2 PUSH1 0x0 DUP8 GAS CALL ISZERO DUP1 ISZERO PUSH2 0x89B JUMPI RETURNDATASIZE PUSH1 0x0 DUP1 RETURNDATACOPY RETURNDATASIZE PUSH1 0x0 REVERT JUMPDEST POP POP POP POP PUSH1 0x40 MLOAD RETURNDATASIZE PUSH1 0x1F NOT PUSH1 0x1F DUP3 ADD AND DUP3 ADD DUP1 PUSH1 0x40 MSTORE POP DUP2 ADD SWAP1 PUSH2 0x8BF SWAP2 SWAP1 PUSH2 0x14D5 JUMP JUMPDEST PUSH2 0x8FE JUMPI PUSH1 0x40 MLOAD PUSH32 0x8C379A000000000000000000000000000000000000000000000000000000000 DUP2 MSTORE PUSH1 0x4 ADD PUSH2 0x8F5 SWAP1 PUSH2 0x1602 JUMP JUMPDEST PUSH1 0x40 MLOAD DUP1 SWAP2 SUB SWAP1 REVERT JUMPDEST DUP1 PUSH1 0x2 PUSH1 0x0 DUP3 DUP3 SLOAD PUSH2 0x910 SWAP2 SWAP1 PUSH2 0x143E JUMP JUMPDEST SWAP3 POP POP DUP2 SWAP1 SSTORE POP POP JUMP JUMPDEST PUSH1 0x0 PUSH1 0x5 PUSH1 0x0 DUP4 PUSH20 0xFFFFFFFFFFFFFFFFFFFFFFFFFFFFFFFFFFFFFFFF AND PUSH20 0xFFFFFFFFFFFFFFFFFFFFFFFFFFFFFFFFFFFFFFFF AND DUP2 MSTORE PUSH1 0x20 ADD SWAP1 DUP2 MSTORE PUSH1 0x20 ADD PUSH1 0x0 KECCAK256 PUSH1 0x0 ADD SLOAD SWAP1 POP SWAP2 SWAP1 POP JUMP JUMPDEST PUSH1 0x3 SLOAD DUP2 JUMP JUMPDEST PUSH1 0x1 PUSH1 0x0 SWAP1 SLOAD SWAP1 PUSH2 0x100 EXP SWAP1 DIV PUSH20 0xFFFFFFFFFFFFFFFFFFFFFFFFFFFFFFFFFFFFFFFF AND DUP2 JUMP JUMPDEST PUSH1 0x3 SLOAD PUSH2 0x99E CALLER PUSH2 0x91A JUMP JUMPDEST LT ISZERO PUSH2 0x9DF JUMPI PUSH1 0x40 MLOAD PUSH32 0x8C379A000000000000000000000000000000000000000000000000000000000 DUP2 MSTORE PUSH1 0x4 ADD PUSH2 0x9D6 SWAP1 PUSH2 0x1694 JUMP JUMPDEST PUSH1 0x40 MLOAD DUP1 SWAP2 SUB SWAP1 REVERT JUMPDEST DUP3 PUSH1 0x1 PUSH1 0x0 SWAP1 SLOAD SWAP1 PUSH2 0x100 EXP SWAP1 DIV PUSH20 0xFFFFFFFFFFFFFFFFFFFFFFFFFFFFFFFFFFFFFFFF AND PUSH20 0xFFFFFFFFFFFFFFFFFFFFFFFFFFFFFFFFFFFFFFFF AND PUSH4 0x70A08231 ADDRESS PUSH1 0x40 MLOAD DUP3 PUSH4 0xFFFFFFFF AND PUSH1 0xE0 SHL DUP2 MSTORE PUSH1 0x4 ADD PUSH2 0xA3B SWAP2 SWAP1 PUSH2 0xFED JUMP JUMPDEST PUSH1 0x20 PUSH1 0x40 MLOAD DUP1 DUP4 SUB DUP2 DUP7 GAS STATICCALL ISZERO DUP1 ISZERO PUSH2 0xA58 JUMPI RETURNDATASIZE PUSH1 0x0 DUP1 RETURNDATACOPY RETURNDATASIZE PUSH1 0x0 REVERT JUMPDEST POP POP POP POP PUSH1 0x40 MLOAD RETURNDATASIZE PUSH1 0x1F NOT PUSH1 0x1F DUP3 ADD AND DUP3 ADD DUP1 PUSH1 0x40 MSTORE POP DUP2 ADD SWAP1 PUSH2 0xA7C SWAP2 SWAP1 PUSH2 0x1228 JUMP JUMPDEST LT ISZERO PUSH2 0xABD JUMPI PUSH1 0x40 MLOAD PUSH32 0x8C379A000000000000000000000000000000000000000000000000000000000 DUP2 MSTORE PUSH1 0x4 ADD PUSH2 0xAB4 SWAP1 PUSH2 0x1726 JUMP JUMPDEST PUSH1 0x40 MLOAD DUP1 SWAP2 SUB SWAP1 REVERT JUMPDEST PUSH1 0x0 DUP2 TIMESTAMP PUSH2 0xACB SWAP2 SWAP1 PUSH2 0x143E JUMP JUMPDEST SWAP1 POP PUSH1 0x4 PUSH1 0x0 CALLER PUSH20 0xFFFFFFFFFFFFFFFFFFFFFFFFFFFFFFFFFFFFFFFF AND PUSH20 0xFFFFFFFFFFFFFFFFFFFFFFFFFFFFFFFFFFFFFFFF AND DUP2 MSTORE PUSH1 0x20 ADD SWAP1 DUP2 MSTORE PUSH1 0x20 ADD PUSH1 0x0 KECCAK256 PUSH1 0x40 MLOAD DUP1 PUSH1 0xA0 ADD PUSH1 0x40 MSTORE DUP1 CALLER PUSH20 0xFFFFFFFFFFFFFFFFFFFFFFFFFFFFFFFFFFFFFFFF AND DUP2 MSTORE PUSH1 0x20 ADD DUP7 DUP2 MSTORE PUSH1 0x20 ADD DUP6 DUP2 MSTORE PUSH1 0x20 ADD DUP4 DUP2 MSTORE PUSH1 0x20 ADD PUSH1 0x0 ISZERO ISZERO DUP2 MSTORE POP SWAP1 DUP1 PUSH1 0x1 DUP2 SLOAD ADD DUP1 DUP3 SSTORE DUP1 SWAP2 POP POP PUSH1 0x1 SWAP1 SUB SWAP1 PUSH1 0x0 MSTORE PUSH1 0x20 PUSH1 0x0 KECCAK256 SWAP1 PUSH1 0x5 MUL ADD PUSH1 0x0 SWAP1 SWAP2 SWAP1 SWAP2 SWAP1 SWAP2 POP PUSH1 0x0 DUP3 ADD MLOAD DUP2 PUSH1 0x0 ADD PUSH1 0x0 PUSH2 0x100 EXP DUP2 SLOAD DUP2 PUSH20 0xFFFFFFFFFFFFFFFFFFFFFFFFFFFFFFFFFFFFFFFF MUL NOT AND SWAP1 DUP4 PUSH20 0xFFFFFFFFFFFFFFFFFFFFFFFFFFFFFFFFFFFFFFFF AND MUL OR SWAP1 SSTORE POP PUSH1 0x20 DUP3 ADD MLOAD DUP2 PUSH1 0x1 ADD SSTORE PUSH1 0x40 DUP3 ADD MLOAD DUP2 PUSH1 0x2 ADD SSTORE PUSH1 0x60 DUP3 ADD MLOAD DUP2 PUSH1 0x3 ADD SSTORE PUSH1 0x80 DUP3 ADD MLOAD DUP2 PUSH1 0x4 ADD PUSH1 0x0 PUSH2 0x100 EXP DUP2 SLOAD DUP2 PUSH1 0xFF MUL NOT AND SWAP1 DUP4 ISZERO ISZERO MUL OR SWAP1 SSTORE POP POP POP PUSH1 0x5 PUSH1 0x0 CALLER PUSH20 0xFFFFFFFFFFFFFFFFFFFFFFFFFFFFFFFFFFFFFFFF AND PUSH20 0xFFFFFFFFFFFFFFFFFFFFFFFFFFFFFFFFFFFFFFFF AND DUP2 MSTORE PUSH1 0x20 ADD SWAP1 DUP2 MSTORE PUSH1 0x20 ADD PUSH1 0x0 KECCAK256 PUSH1 0x1 ADD PUSH1 0x0 DUP2 SLOAD DUP1 SWAP3 SWAP2 SWAP1 PUSH2 0xC4F SWAP1 PUSH2 0x156E JUMP JUMPDEST SWAP2 SWAP1 POP SSTORE POP PUSH1 0x1 PUSH1 0x0 SWAP1 SLOAD SWAP1 PUSH2 0x100 EXP SWAP1 DIV PUSH20 0xFFFFFFFFFFFFFFFFFFFFFFFFFFFFFFFFFFFFFFFF AND PUSH20 0xFFFFFFFFFFFFFFFFFFFFFFFFFFFFFFFFFFFFFFFF AND PUSH4 0xA9059CBB CALLER DUP7 PUSH1 0x40 MLOAD DUP4 PUSH4 0xFFFFFFFF AND PUSH1 0xE0 SHL DUP2 MSTORE PUSH1 0x4 ADD PUSH2 0xCB1 SWAP3 SWAP2 SWAP1 PUSH2 0x1746 JUMP JUMPDEST PUSH1 0x20 PUSH1 0x40 MLOAD DUP1 DUP4 SUB DUP2 PUSH1 0x0 DUP8 GAS CALL ISZERO DUP1 ISZERO PUSH2 0xCD0 JUMPI RETURNDATASIZE PUSH1 0x0 DUP1 RETURNDATACOPY RETURNDATASIZE PUSH1 0x0 REVERT JUMPDEST POP POP POP POP PUSH1 0x40 MLOAD RETURNDATASIZE PUSH1 0x1F NOT PUSH1 0x1F DUP3 ADD AND DUP3 ADD DUP1 PUSH1 0x40 MSTORE POP DUP2 ADD SWAP1 PUSH2 0xCF4 SWAP2 SWAP1 PUSH2 0x14D5 JUMP JUMPDEST POP CALLER PUSH20 0xFFFFFFFFFFFFFFFFFFFFFFFFFFFFFFFFFFFFFFFF AND PUSH32 0x470E775E4FA2BD975947314DC912D0DD85338D809A6B967E36382E32A3B6F2BB DUP6 DUP6 DUP5 PUSH1 0x40 MLOAD PUSH2 0xD3F SWAP4 SWAP3 SWAP2 SWAP1 PUSH2 0x110F JUMP JUMPDEST PUSH1 0x40 MLOAD DUP1 SWAP2 SUB SWAP1 LOG2 POP POP POP POP JUMP JUMPDEST PUSH2 0xD55 PUSH2 0xDD0 JUMP JUMPDEST PUSH1 0x0 PUSH20 0xFFFFFFFFFFFFFFFFFFFFFFFFFFFFFFFFFFFFFFFF AND DUP2 PUSH20 0xFFFFFFFFFFFFFFFFFFFFFFFFFFFFFFFFFFFFFFFF AND SUB PUSH2 0xDC4 JUMPI PUSH1 0x40 MLOAD PUSH32 0x8C379A000000000000000000000000000000000000000000000000000000000 DUP2 MSTORE PUSH1 0x4 ADD PUSH2 0xDBB SWAP1 PUSH2 0x17E1 JUMP JUMPDEST PUSH1 0x40 MLOAD DUP1 SWAP2 SUB SWAP1 REVERT JUMPDEST PUSH2 0xDCD DUP2 PUSH2 0xE4E JUMP JUMPDEST POP JUMP JUMPDEST PUSH2 0xDD8 PUSH2 0xF12 JUMP JUMPDEST PUSH20 0xFFFFFFFFFFFFFFFFFFFFFFFFFFFFFFFFFFFFFFFF AND PUSH2 0xDF6 PUSH2 0x380 JUMP JUMPDEST PUSH20 0xFFFFFFFFFFFFFFFFFFFFFFFFFFFFFFFFFFFFFFFF AND EQ PUSH2 0xE4C JUMPI PUSH1 0x40 MLOAD PUSH32 0x8C379A000000000000000000000000000000000000000000000000000000000 DUP2 MSTORE PUSH1 0x4 ADD PUSH2 0xE43 SWAP1 PUSH2 0x184D JUMP JUMPDEST PUSH1 0x40 MLOAD DUP1 SWAP2 SUB SWAP1 REVERT JUMPDEST JUMP JUMPDEST PUSH1 0x0 DUP1 PUSH1 0x0 SWAP1 SLOAD SWAP1 PUSH2 0x100 EXP SWAP1 DIV PUSH20 0xFFFFFFFFFFFFFFFFFFFFFFFFFFFFFFFFFFFFFFFF AND SWAP1 POP DUP2 PUSH1 0x0 DUP1 PUSH2 0x100 EXP DUP2 SLOAD DUP2 PUSH20 0xFFFFFFFFFFFFFFFFFFFFFFFFFFFFFFFFFFFFFFFF MUL NOT AND SWAP1 DUP4 PUSH20 0xFFFFFFFFFFFFFFFFFFFFFFFFFFFFFFFFFFFFFFFF AND MUL OR SWAP1 SSTORE POP DUP2 PUSH20 0xFFFFFFFFFFFFFFFFFFFFFFFFFFFFFFFFFFFFFFFF AND DUP2 PUSH20 0xFFFFFFFFFFFFFFFFFFFFFFFFFFFFFFFFFFFFFFFF AND PUSH32 0x8BE0079C531659141344CD1FD0A4F28419497F9722A3DAAFE3B4186F6B6457E0 PUSH1 0x40 MLOAD PUSH1 0x40 MLOAD DUP1 SWAP2 SUB SWAP1 LOG3 POP POP JUMP JUMPDEST PUSH1 0x0 CALLER SWAP1 POP SWAP1 JUMP JUMPDEST PUSH1 0x0 DUP2 SWAP1 POP SWAP2 SWAP1 POP JUMP JUMPDEST PUSH2 0xF2D DUP2 PUSH2 0xF1A JUMP JUMPDEST DUP3 MSTORE POP POP JUMP JUMPDEST PUSH1 0x0 PUSH1 0x20 DUP3 ADD SWAP1 POP PUSH2 0xF48 PUSH1 0x0 DUP4 ADD DUP5 PUSH2 0xF24 JUMP JUMPDEST SWAP3 SWAP2 POP POP JUMP JUMPDEST PUSH1 0x0 DUP1 REVERT JUMPDEST PUSH2 0xF5C DUP2 PUSH2 0xF1A JUMP JUMPDEST DUP2 EQ PUSH2 0xF67 JUMPI PUSH1 0x0 DUP1 REVERT JUMPDEST POP JUMP JUMPDEST PUSH1 0x0 DUP2 CALLDATALOAD SWAP1 POP PUSH2 0xF79 DUP2 PUSH2 0xF53 JUMP JUMPDEST SWAP3 SWAP2 POP POP JUMP JUMPDEST PUSH1 0x0 PUSH1 0x20 DUP3 DUP5 SUB SLT ISZERO PUSH2 0xF95 JUMPI PUSH2 0xF94 PUSH2 0xF4E JUMP JUMPDEST JUMPDEST PUSH1 0x0 PUSH2 0xFA3 DUP5 DUP3 DUP6 ADD PUSH2 0xF6A JUMP JUMPDEST SWAP2 POP POP SWAP3 SWAP2 POP POP JUMP JUMPDEST PUSH1 0x0 PUSH20 0xFFFFFFFFFFFFFFFFFFFFFFFFFFFFFFFFFFFFFFFF DUP3 AND SWAP1 POP SWAP2 SWAP1 POP JUMP JUMPDEST PUSH1 0x0 PUSH2 0xFD7 DUP3 PUSH2 0xFAC JUMP JUMPDEST SWAP1 POP SWAP2 SWAP1 POP JUMP JUMPDEST PUSH2 0xFE7 DUP2 PUSH2 0xFCC JUMP JUMPDEST DUP3 MSTORE POP POP JUMP JUMPDEST PUSH1 0x0 PUSH1 0x20 DUP3 ADD SWAP1 POP PUSH2 0x1002 PUSH1 0x0 DUP4 ADD DUP5 PUSH2 0xFDE JUMP JUMPDEST SWAP3 SWAP2 POP POP JUMP JUMPDEST PUSH2 0x1011 DUP2 PUSH2 0xFCC JUMP JUMPDEST DUP2 EQ PUSH2 0x101C JUMPI PUSH1 0x0 DUP1 REVERT JUMPDEST POP JUMP JUMPDEST PUSH1 0x0 DUP2 CALLDATALOAD SWAP1 POP PUSH2 0x102E DUP2 PUSH2 0x1008 JUMP JUMPDEST SWAP3 SWAP2 POP POP JUMP JUMPDEST PUSH1 0x0 DUP1 PUSH1 0x40 DUP4 DUP6 SUB SLT ISZERO PUSH2 0x104B JUMPI PUSH2 0x104A PUSH2 0xF4E JUMP JUMPDEST JUMPDEST PUSH1 0x0 PUSH2 0x1059 DUP6 DUP3 DUP7 ADD PUSH2 0x101F JUMP JUMPDEST SWAP3 POP POP PUSH1 0x20 PUSH2 0x106A DUP6 DUP3 DUP7 ADD PUSH2 0xF6A JUMP JUMPDEST SWAP2 POP POP SWAP3 POP SWAP3 SWAP1 POP JUMP JUMPDEST PUSH1 0x0 DUP2 ISZERO ISZERO SWAP1 POP SWAP2 SWAP1 POP JUMP JUMPDEST PUSH2 0x1089 DUP2 PUSH2 0x1074 JUMP JUMPDEST DUP3 MSTORE POP POP JUMP JUMPDEST PUSH1 0x0 PUSH1 0xA0 DUP3 ADD SWAP1 POP PUSH2 0x10A4 PUSH1 0x0 DUP4 ADD DUP9 PUSH2 0xFDE JUMP JUMPDEST PUSH2 0x10B1 PUSH1 0x20 DUP4 ADD DUP8 PUSH2 0xF24 JUMP JUMPDEST PUSH2 0x10BE PUSH1 0x40 DUP4 ADD DUP7 PUSH2 0xF24 JUMP JUMPDEST PUSH2 0x10CB PUSH1 0x60 DUP4 ADD DUP6 PUSH2 0xF24 JUMP JUMPDEST PUSH2 0x10D8 PUSH1 0x80 DUP4 ADD DUP5 PUSH2 0x1080 JUMP JUMPDEST SWAP7 SWAP6 POP POP POP POP POP POP JUMP JUMPDEST PUSH1 0x0 PUSH1 0x20 DUP3 DUP5 SUB SLT ISZERO PUSH2 0x10F8 JUMPI PUSH2 0x10F7 PUSH2 0xF4E JUMP JUMPDEST JUMPDEST PUSH1 0x0 PUSH2 0x1106 DUP5 DUP3 DUP6 ADD PUSH2 0x101F JUMP JUMPDEST SWAP2 POP POP SWAP3 SWAP2 POP POP JUMP JUMPDEST PUSH1 0x0 PUSH1 0x60 DUP3 ADD SWAP1 POP PUSH2 0x1124 PUSH1 0x0 DUP4 ADD DUP7 PUSH2 0xF24 JUMP JUMPDEST PUSH2 0x1131 PUSH1 0x20 DUP4 ADD DUP6 PUSH2 0xF24 JUMP JUMPDEST PUSH2 0x113E PUSH1 0x40 DUP4 ADD DUP5 PUSH2 0xF24 JUMP JUMPDEST SWAP5 SWAP4 POP POP POP POP JUMP JUMPDEST PUSH1 0x0 DUP2 SWAP1 POP SWAP2 SWAP1 POP JUMP JUMPDEST PUSH1 0x0 PUSH2 0x116B PUSH2 0x1166 PUSH2 0x1161 DUP5 PUSH2 0xFAC JUMP JUMPDEST PUSH2 0x1146 JUMP JUMPDEST PUSH2 0xFAC JUMP JUMPDEST SWAP1 POP SWAP2 SWAP1 POP JUMP JUMPDEST PUSH1 0x0 PUSH2 0x117D DUP3 PUSH2 0x1150 JUMP JUMPDEST SWAP1 POP SWAP2 SWAP1 POP JUMP JUMPDEST PUSH1 0x0 PUSH2 0x118F DUP3 PUSH2 0x1172 JUMP JUMPDEST SWAP1 POP SWAP2 SWAP1 POP JUMP JUMPDEST PUSH2 0x119F DUP2 PUSH2 0x1184 JUMP JUMPDEST DUP3 MSTORE POP POP JUMP JUMPDEST PUSH1 0x0 PUSH1 0x20 DUP3 ADD SWAP1 POP PUSH2 0x11BA PUSH1 0x0 DUP4 ADD DUP5 PUSH2 0x1196 JUMP JUMPDEST SWAP3 SWAP2 POP POP JUMP JUMPDEST PUSH1 0x0 DUP1 PUSH1 0x0 PUSH1 0x60 DUP5 DUP7 SUB SLT ISZERO PUSH2 0x11D9 JUMPI PUSH2 0x11D8 PUSH2 0xF4E JUMP JUMPDEST JUMPDEST PUSH1 0x0 PUSH2 0x11E7 DUP7 DUP3 DUP8 ADD PUSH2 0xF6A JUMP JUMPDEST SWAP4 POP POP PUSH1 0x20 PUSH2 0x11F8 DUP7 DUP3 DUP8 ADD PUSH2 0xF6A JUMP JUMPDEST SWAP3 POP POP PUSH1 0x40 PUSH2 0x1209 DUP7 DUP3 DUP8 ADD PUSH2 0xF6A JUMP JUMPDEST SWAP2 POP POP SWAP3 POP SWAP3 POP SWAP3 JUMP JUMPDEST PUSH1 0x0 DUP2 MLOAD SWAP1 POP PUSH2 0x1222 DUP2 PUSH2 0xF53 JUMP JUMPDEST SWAP3 SWAP2 POP POP JUMP JUMPDEST PUSH1 0x0 PUSH1 0x20 DUP3 DUP5 SUB SLT ISZERO PUSH2 0x123E JUMPI PUSH2 0x123D PUSH2 0xF4E JUMP JUMPDEST JUMPDEST PUSH1 0x0 PUSH2 0x124C DUP5 DUP3 DUP6 ADD PUSH2 0x1213 JUMP JUMPDEST SWAP2 POP POP SWAP3 SWAP2 POP POP JUMP JUMPDEST PUSH32 0x4E487B7100000000000000000000000000000000000000000000000000000000 PUSH1 0x0 MSTORE PUSH1 0x32 PUSH1 0x4 MSTORE PUSH1 0x24 PUSH1 0x0 REVERT JUMPDEST PUSH1 0x0 DUP3 DUP3 MSTORE PUSH1 0x20 DUP3 ADD SWAP1 POP SWAP3 SWAP2 POP POP JUMP JUMPDEST PUSH32 0x4C6F616E20616C7265616479207265706169642E000000000000000000000000 PUSH1 0x0 DUP3 ADD MSTORE POP JUMP JUMPDEST PUSH1 0x0 PUSH2 0x12CB PUSH1 0x14 DUP4 PUSH2 0x1284 JUMP JUMPDEST SWAP2 POP PUSH2 0x12D6 DUP3 PUSH2 0x1295 JUMP JUMPDEST PUSH1 0x20 DUP3 ADD SWAP1 POP SWAP2 SWAP1 POP JUMP JUMPDEST PUSH1 0x0 PUSH1 0x20 DUP3 ADD SWAP1 POP DUP2 DUP2 SUB PUSH1 0x0 DUP4 ADD MSTORE PUSH2 0x12FA DUP2 PUSH2 0x12BE JUMP JUMPDEST SWAP1 POP SWAP2 SWAP1 POP JUMP JUMPDEST PUSH32 0x4C6F616E20647565206461746520686173207061737365642100000000000000 PUSH1 0x0 DUP3 ADD MSTORE POP JUMP JUMPDEST PUSH1 0x0 PUSH2 0x1337 PUSH1 0x19 DUP4 PUSH2 0x1284 JUMP JUMPDEST SWAP2 POP PUSH2 0x1342 DUP3 PUSH2 0x1301 JUMP JUMPDEST PUSH1 0x20 DUP3 ADD SWAP1 POP SWAP2 SWAP1 POP JUMP JUMPDEST PUSH1 0x0 PUSH1 0x20 DUP3 ADD SWAP1 POP DUP2 DUP2 SUB PUSH1 0x0 DUP4 ADD MSTORE PUSH2 0x1366 DUP2 PUSH2 0x132A JUMP JUMPDEST SWAP1 POP SWAP2 SWAP1 POP JUMP JUMPDEST PUSH32 0x4E487B7100000000000000000000000000000000000000000000000000000000 PUSH1 0x0 MSTORE PUSH1 0x11 PUSH1 0x4 MSTORE PUSH1 0x24 PUSH1 0x0 REVERT JUMPDEST PUSH1 0x0 PUSH2 0x13A7 DUP3 PUSH2 0xF1A JUMP JUMPDEST SWAP2 POP PUSH2 0x13B2 DUP4 PUSH2 0xF1A JUMP JUMPDEST SWAP3 POP DUP3 DUP3 MUL PUSH2 0x13C0 DUP2 PUSH2 0xF1A JUMP JUMPDEST SWAP2 POP DUP3 DUP3 DIV DUP5 EQ DUP4 ISZERO OR PUSH2 0x13D7 JUMPI PUSH2 0x13D6 PUSH2 0x136D JUMP JUMPDEST JUMPDEST POP SWAP3 SWAP2 POP POP JUMP JUMPDEST PUSH32 0x4E487B7100000000000000000000000000000000000000000000000000000000 PUSH1 0x0 MSTORE PUSH1 0x12 PUSH1 0x4 MSTORE PUSH1 0x24 PUSH1 0x0 REVERT JUMPDEST PUSH1 0x0 PUSH2 0x1418 DUP3 PUSH2 0xF1A JUMP JUMPDEST SWAP2 POP PUSH2 0x1423 DUP4 PUSH2 0xF1A JUMP JUMPDEST SWAP3 POP DUP3 PUSH2 0x1433 JUMPI PUSH2 0x1432 PUSH2 0x13DE JUMP JUMPDEST JUMPDEST DUP3 DUP3 DIV SWAP1 POP SWAP3 SWAP2 POP POP JUMP JUMPDEST PUSH1 0x0 PUSH2 0x1449 DUP3 PUSH2 0xF1A JUMP JUMPDEST SWAP2 POP PUSH2 0x1454 DUP4 PUSH2 0xF1A JUMP JUMPDEST SWAP3 POP DUP3 DUP3 ADD SWAP1 POP DUP1 DUP3 GT ISZERO PUSH2 0x146C JUMPI PUSH2 0x146B PUSH2 0x136D JUMP JUMPDEST JUMPDEST SWAP3 SWAP2 POP POP JUMP JUMPDEST PUSH1 0x0 PUSH1 0x60 DUP3 ADD SWAP1 POP PUSH2 0x1487 PUSH1 0x0 DUP4 ADD DUP7 PUSH2 0xFDE JUMP JUMPDEST PUSH2 0x1494 PUSH1 0x20 DUP4 ADD DUP6 PUSH2 0xFDE JUMP JUMPDEST PUSH2 0x14A1 PUSH1 0x40 DUP4 ADD DUP5 PUSH2 0xF24 JUMP JUMPDEST SWAP5 SWAP4 POP POP POP POP JUMP JUMPDEST PUSH2 0x14B2 DUP2 PUSH2 0x1074 JUMP JUMPDEST DUP2 EQ PUSH2 0x14BD JUMPI PUSH1 0x0 DUP1 REVERT JUMPDEST POP JUMP JUMPDEST PUSH1 0x0 DUP2 MLOAD SWAP1 POP PUSH2 0x14CF DUP2 PUSH2 0x14A9 JUMP JUMPDEST SWAP3 SWAP2 POP POP JUMP JUMPDEST PUSH1 0x0 PUSH1 0x20 DUP3 DUP5 SUB SLT ISZERO PUSH2 0x14EB JUMPI PUSH2 0x14EA PUSH2 0xF4E JUMP JUMPDEST JUMPDEST PUSH1 0x0 PUSH2 0x14F9 DUP5 DUP3 DUP6 ADD PUSH2 0x14C0 JUMP JUMPDEST SWAP2 POP POP SWAP3 SWAP2 POP POP JUMP JUMPDEST PUSH32 0x52657061796D656E74206661696C65642E000000000000000000000000000000 PUSH1 0x0 DUP3 ADD MSTORE POP JUMP JUMPDEST PUSH1 0x0 PUSH2 0x1538 PUSH1 0x11 DUP4 PUSH2 0x1284 JUMP JUMPDEST SWAP2 POP PUSH2 0x1543 DUP3 PUSH2 0x1502 JUMP JUMPDEST PUSH1 0x20 DUP3 ADD SWAP1 POP SWAP2 SWAP1 POP JUMP JUMPDEST PUSH1 0x0 PUSH1 0x20 DUP3 ADD SWAP1 POP DUP2 DUP2 SUB PUSH1 0x0 DUP4 ADD MSTORE PUSH2 0x1567 DUP2 PUSH2 0x152B JUMP JUMPDEST SWAP1 POP SWAP2 SWAP1 POP JUMP JUMPDEST PUSH1 0x0 PUSH2 0x1579 DUP3 PUSH2 0xF1A JUMP JUMPDEST SWAP2 POP PUSH32 0xFFFFFFFFFFFFFFFFFFFFFFFFFFFFFFFFFFFFFFFFFFFFFFFFFFFFFFFFFFFFFFFF DUP3 SUB PUSH2 0x15AB JUMPI PUSH2 0x15AA PUSH2 0x136D JUMP JUMPDEST JUMPDEST PUSH1 0x1 DUP3 ADD SWAP1 POP SWAP2 SWAP1 POP JUMP JUMPDEST PUSH32 0x46756E64696E67206661696C65642E0000000000000000000000000000000000 PUSH1 0x0 DUP3 ADD MSTORE POP JUMP JUMPDEST PUSH1 0x0 PUSH2 0x15EC PUSH1 0xF DUP4 PUSH2 0x1284 JUMP JUMPDEST SWAP2 POP PUSH2 0x15F7 DUP3 PUSH2 0x15B6 JUMP JUMPDEST PUSH1 0x20 DUP3 ADD SWAP1 POP SWAP2 SWAP1 POP JUMP JUMPDEST PUSH1 0x0 PUSH1 0x20 DUP3 ADD SWAP1 POP DUP2 DUP2 SUB PUSH1 0x0 DUP4 ADD MSTORE PUSH2 0x161B DUP2 PUSH2 0x15DF JUMP JUMPDEST SWAP1 POP SWAP2 SWAP1 POP JUMP JUMPDEST PUSH32 0x496E73756666696369656E742072657075746174696F6E2073636F726520666F PUSH1 0x0 DUP3 ADD MSTORE PUSH32 0x72206C6F616E2E00000000000000000000000000000000000000000000000000 PUSH1 0x20 DUP3 ADD MSTORE POP JUMP JUMPDEST PUSH1 0x0 PUSH2 0x167E PUSH1 0x27 DUP4 PUSH2 0x1284 JUMP JUMPDEST SWAP2 POP PUSH2 0x1689 DUP3 PUSH2 0x1622 JUMP JUMPDEST PUSH1 0x40 DUP3 ADD SWAP1 POP SWAP2 SWAP1 POP JUMP JUMPDEST PUSH1 0x0 PUSH1 0x20 DUP3 ADD SWAP1 POP DUP2 DUP2 SUB PUSH1 0x0 DUP4 ADD MSTORE PUSH2 0x16AD DUP2 PUSH2 0x1671 JUMP JUMPDEST SWAP1 POP SWAP2 SWAP1 POP JUMP JUMPDEST PUSH32 0x4E6F7420656E6F7567682066756E647320696E20746865206C6F616E20706F6F PUSH1 0x0 DUP3 ADD MSTORE PUSH32 0x6C2E000000000000000000000000000000000000000000000000000000000000 PUSH1 0x20 DUP3 ADD MSTORE POP JUMP JUMPDEST PUSH1 0x0 PUSH2 0x1710 PUSH1 0x22 DUP4 PUSH2 0x1284 JUMP JUMPDEST SWAP2 POP PUSH2 0x171B DUP3 PUSH2 0x16B4 JUMP JUMPDEST PUSH1 0x40 DUP3 ADD SWAP1 POP SWAP2 SWAP1 POP JUMP JUMPDEST PUSH1 0x0 PUSH1 0x20 DUP3 ADD SWAP1 POP DUP2 DUP2 SUB PUSH1 0x0 DUP4 ADD MSTORE PUSH2 0x173F DUP2 PUSH2 0x1703 JUMP JUMPDEST SWAP1 POP SWAP2 SWAP1 POP JUMP JUMPDEST PUSH1 0x0 PUSH1 0x40 DUP3 ADD SWAP1 POP PUSH2 0x175B PUSH1 0x0 DUP4 ADD DUP6 PUSH2 0xFDE JUMP JUMPDEST PUSH2 0x1768 PUSH1 0x20 DUP4 ADD DUP5 PUSH2 0xF24 JUMP JUMPDEST SWAP4 SWAP3 POP POP POP JUMP JUMPDEST PUSH32 0x4F776E61626C653A206E6577206F776E657220697320746865207A65726F2061 PUSH1 0x0 DUP3 ADD MSTORE PUSH32 0x6464726573730000000000000000000000000000000000000000000000000000 PUSH1 0x20 DUP3 ADD MSTORE POP JUMP JUMPDEST PUSH1 0x0 PUSH2 0x17CB PUSH1 0x26 DUP4 PUSH2 0x1284 JUMP JUMPDEST SWAP2 POP PUSH2 0x17D6 DUP3 PUSH2 0x176F JUMP JUMPDEST PUSH1 0x40 DUP3 ADD SWAP1 POP SWAP2 SWAP1 POP JUMP JUMPDEST PUSH1 0x0 PUSH1 0x20 DUP3 ADD SWAP1 POP DUP2 DUP2 SUB PUSH1 0x0 DUP4 ADD MSTORE PUSH2 0x17FA DUP2 PUSH2 0x17BE JUMP JUMPDEST SWAP1 POP SWAP2 SWAP1 POP JUMP JUMPDEST PUSH32 0x4F776E61626C653A2063616C6C6572206973206E6F7420746865206F776E6572 PUSH1 0x0 DUP3 ADD MSTORE POP JUMP JUMPDEST PUSH1 0x0 PUSH2 0x1837 PUSH1 0x20 DUP4 PUSH2 0x1284 JUMP JUMPDEST SWAP2 POP PUSH2 0x1842 DUP3 PUSH2 0x1801 JUMP JUMPDEST PUSH1 0x20 DUP3 ADD SWAP1 POP SWAP2 SWAP1 POP JUMP JUMPDEST PUSH1 0x0 PUSH1 0x20 DUP3 ADD SWAP1 POP DUP2 DUP2 SUB PUSH1 0x0 DUP4 ADD MSTORE PUSH2 0x1866 DUP2 PUSH2 0x182A JUMP JUMPDEST SWAP1 POP SWAP2 SWAP1 POP JUMP INVALID LOG2 PUSH5 0x6970667358 0x22 SLT KECCAK256 PUSH11 0xC7DC45303B5A86A5AF2AF9 SWAP12 0xC2 0x29 SSTORE SELFDESTRUCT DUP5 0xD1 0x1F SWAP5 SWAP1 DUP13 DUP12 DUP16 CALLVALUE CODESIZE SMOD PUSH4 0xC06C0064 PUSH20 0x6F6C634300081400330000000000000000000000 "},"methodIdentifiers":{"fundLoanPool(uint256)":"ca4cb29a","getCreditScore(address)":"d3dd2bdf","getLoanPoolBalance()":"2bdf6f83","loanPoolBalance()":"5e6a3674","loans(address,uint256)":"98c61c37","owner()":"8da5cb5b","renounceOwnership()":"715018a6","repayLoan(uint256)":"ab7b1c89","reputationThreshold()":"d410e8ba","requestLoan(uint256,uint256,uint256)":"edadbbfe","setReputationThreshold(uint256)":"315ecb64","stablecoin()":"e9cbd822","transferOwnership(address)":"f2fde38b","users(address)":"a87430ba"}}}}}