{
  "_format": "hh-sol-artifact-1",
  "contractName": "LoanDecisioning",
  "sourceName": "contracts/loanDecisioning.sol",
  "abi": [
    {
      "inputs": [
        {
          "internalType": "address",
          "name": "_stablecoinAddress",
          "type": "address"
        }
      ],
      "stateMutability": "nonpayable",
      "type": "constructor"
    },
    {
      "anonymous": false,
      "inputs": [
        {
          "indexed": true,
          "internalType": "address",
          "name": "borrower",
          "type": "address"
        },
        {
          "indexed": false,
          "internalType": "uint256",
          "name": "amount",
          "type": "uint256"
        }
      ],
      "name": "LoanRepaid",
      "type": "event"
    },
    {
      "anonymous": false,
      "inputs": [
        {
          "indexed": true,
          "internalType": "address",
          "name": "borrower",
          "type": "address"
        },
        {
          "indexed": false,
          "internalType": "uint256",
          "name": "amount",
          "type": "uint256"
        },
        {
          "indexed": false,
          "internalType": "uint256",
          "name": "interestRate",
          "type": "uint256"
        },
        {
          "indexed": false,
          "internalType": "uint256",
          "name": "dueDate",
          "type": "uint256"
        }
      ],
      "name": "LoanRequested",
      "type": "event"
    },
    {
      "anonymous": false,
      "inputs": [
        {
          "indexed": true,
          "internalType": "address",
          "name": "previousOwner",
          "type": "address"
        },
        {
          "indexed": true,
          "internalType": "address",
          "name": "newOwner",
          "type": "address"
        }
      ],
      "name": "OwnershipTransferred",
      "type": "event"
    },
    {
      "anonymous": false,
      "inputs": [
        {
          "indexed": true,
          "internalType": "address",
          "name": "user",
          "type": "address"
        },
        {
          "indexed": false,
          "internalType": "uint256",
          "name": "newScore",
          "type": "uint256"
        }
      ],
      "name": "ReputationUpdated",
      "type": "event"
    },
    {
      "inputs": [
        {
          "internalType": "uint256",
          "name": "_amount",
          "type": "uint256"
        }
      ],
      "name": "fundLoanPool",
      "outputs": [],
      "stateMutability": "nonpayable",
      "type": "function"
    },
    {
      "inputs": [
        {
          "internalType": "address",
          "name": "user",
          "type": "address"
        }
      ],
      "name": "getCreditScore",
      "outputs": [
        {
          "internalType": "uint256",
          "name": "",
          "type": "uint256"
        }
      ],
      "stateMutability": "view",
      "type": "function"
    },
    {
      "inputs": [],
      "name": "getLoanPoolBalance",
      "outputs": [
        {
          "internalType": "uint256",
          "name": "",
          "type": "uint256"
        }
      ],
      "stateMutability": "view",
      "type": "function"
    },
    {
      "inputs": [],
      "name": "loanPoolBalance",
      "outputs": [
        {
          "internalType": "uint256",
          "name": "",
          "type": "uint256"
        }
      ],
      "stateMutability": "view",
      "type": "function"
    },
    {
      "inputs": [
        {
          "internalType": "address",
          "name": "",
          "type": "address"
        },
        {
          "internalType": "uint256",
          "name": "",
          "type": "uint256"
        }
      ],
      "name": "loans",
      "outputs": [
        {
          "internalType": "address",
          "name": "borrower",
          "type": "address"
        },
        {
          "internalType": "uint256",
          "name": "amount",
          "type": "uint256"
        },
        {
          "internalType": "uint256",
          "name": "interestRate",
          "type": "uint256"
        },
        {
          "internalType": "uint256",
          "name": "dueDate",
          "type": "uint256"
        },
        {
          "internalType": "bool",
          "name": "isRepaid",
          "type": "bool"
        }
      ],
      "stateMutability": "view",
      "type": "function"
    },
    {
      "inputs": [],
      "name": "owner",
      "outputs": [
        {
          "internalType": "address",
          "name": "",
          "type": "address"
        }
      ],
      "stateMutability": "view",
      "type": "function"
    },
    {
      "inputs": [],
      "name": "renounceOwnership",
      "outputs": [],
      "stateMutability": "nonpayable",
      "type": "function"
    },
    {
      "inputs": [
        {
          "internalType": "uint256",
          "name": "loanIndex",
          "type": "uint256"
        }
      ],
      "name": "repayLoan",
      "outputs": [],
      "stateMutability": "nonpayable",
      "type": "function"
    },
    {
      "inputs": [],
      "name": "reputationThreshold",
      "outputs": [
        {
          "internalType": "uint256",
          "name": "",
          "type": "uint256"
        }
      ],
      "stateMutability": "view",
      "type": "function"
    },
    {
      "inputs": [
        {
          "internalType": "uint256",
          "name": "_amount",
          "type": "uint256"
        },
        {
          "internalType": "uint256",
          "name": "_interestRate",
          "type": "uint256"
        },
        {
          "internalType": "uint256",
          "name": "_duration",
          "type": "uint256"
        }
      ],
      "name": "requestLoan",
      "outputs": [],
      "stateMutability": "nonpayable",
      "type": "function"
    },
    {
      "inputs": [
        {
          "internalType": "uint256",
          "name": "_threshold",
          "type": "uint256"
        }
      ],
      "name": "setReputationThreshold",
      "outputs": [],
      "stateMutability": "nonpayable",
      "type": "function"
    },
    {
      "inputs": [],
      "name": "stablecoin",
      "outputs": [
        {
          "internalType": "contract IERC20",
          "name": "",
          "type": "address"
        }
      ],
      "stateMutability": "view",
      "type": "function"
    },
    {
      "inputs": [
        {
          "internalType": "address",
          "name": "newOwner",
          "type": "address"
        }
      ],
      "name": "transferOwnership",
      "outputs": [],
      "stateMutability": "nonpayable",
      "type": "function"
    },
    {
      "inputs": [
        {
          "internalType": "address",
          "name": "",
          "type": "address"
        }
      ],
      "name": "users",
      "outputs": [
        {
          "internalType": "uint256",
          "name": "reputationScore",
          "type": "uint256"
        },
        {
          "internalType": "uint256",
          "name": "totalLoansTaken",
          "type": "uint256"
        },
        {
          "internalType": "uint256",
          "name": "totalLoansRepaid",
          "type": "uint256"
        }
      ],
      "stateMutability": "view",
      "type": "function"
    }
  ],
  "bytecode": "0x608060405260326003553480156200001657600080fd5b5060405162001abf38038062001abf83398181016040528101906200003c9190620001da565b6200005c62000050620000a460201b60201c565b620000ac60201b60201c565b80600160006101000a81548173ffffffffffffffffffffffffffffffffffffffff021916908373ffffffffffffffffffffffffffffffffffffffff160217905550506200020c565b600033905090565b60008060009054906101000a900473ffffffffffffffffffffffffffffffffffffffff169050816000806101000a81548173ffffffffffffffffffffffffffffffffffffffff021916908373ffffffffffffffffffffffffffffffffffffffff1602179055508173ffffffffffffffffffffffffffffffffffffffff168173ffffffffffffffffffffffffffffffffffffffff167f8be0079c531659141344cd1fd0a4f28419497f9722a3daafe3b4186f6b6457e060405160405180910390a35050565b600080fd5b600073ffffffffffffffffffffffffffffffffffffffff82169050919050565b6000620001a28262000175565b9050919050565b620001b48162000195565b8114620001c057600080fd5b50565b600081519050620001d481620001a9565b92915050565b600060208284031215620001f357620001f262000170565b5b60006200020384828501620001c3565b91505092915050565b6118a3806200021c6000396000f3fe608060405234801561001057600080fd5b50600436106100ea5760003560e01c8063ab7b1c891161008c578063d410e8ba11610066578063d410e8ba1461023d578063e9cbd8221461025b578063edadbbfe14610279578063f2fde38b14610295576100ea565b8063ab7b1c89146101d5578063ca4cb29a146101f1578063d3dd2bdf1461020d576100ea565b8063715018a6116100c8578063715018a6146101475780638da5cb5b1461015157806398c61c371461016f578063a87430ba146101a3576100ea565b80632bdf6f83146100ef578063315ecb641461010d5780635e6a367414610129575b600080fd5b6100f76102b1565b6040516101049190610f33565b60405180910390f35b61012760048036038101906101229190610f7f565b610354565b005b610131610366565b60405161013e9190610f33565b60405180910390f35b61014f61036c565b005b610159610380565b6040516101669190610fed565b60405180910390f35b61018960048036038101906101849190611034565b6103a9565b60405161019a95949392919061108f565b60405180910390f35b6101bd60048036038101906101b891906110e2565b610429565b6040516101cc9392919061110f565b60405180910390f35b6101ef60048036038101906101ea9190610f7f565b610453565b005b61020b60048036038101906102069190610f7f565b610815565b005b610227600480360381019061022291906110e2565b61091a565b6040516102349190610f33565b60405180910390f35b610245610966565b6040516102529190610f33565b60405180910390f35b61026361096c565b60405161027091906111a5565b60405180910390f35b610293600480360381019061028e91906111c0565b610992565b005b6102af60048036038101906102aa91906110e2565b610d4d565b005b6000600160009054906101000a900473ffffffffffffffffffffffffffffffffffffffff1673ffffffffffffffffffffffffffffffffffffffff166370a08231306040518263ffffffff1660e01b815260040161030e9190610fed565b602060405180830381865afa15801561032b573d6000803e3d6000fd5b505050506040513d601f19601f8201168201806040525081019061034f9190611228565b905090565b61035c610dd0565b8060038190555050565b60025481565b610374610dd0565b61037e6000610e4e565b565b60008060009054906101000a900473ffffffffffffffffffffffffffffffffffffffff16905090565b600460205281600052604060002081815481106103c557600080fd5b9060005260206000209060050201600091509150508060000160009054906101000a900473ffffffffffffffffffffffffffffffffffffffff16908060010154908060020154908060030154908060040160009054906101000a900460ff16905085565b60056020528060005260406000206000915090508060000154908060010154908060020154905083565b6000600460003373ffffffffffffffffffffffffffffffffffffffff1673ffffffffffffffffffffffffffffffffffffffff16815260200190815260200160002082815481106104a6576104a5611255565b5b906000526020600020906005020190508060040160009054906101000a900460ff1615610508576040517f08c379a00000000000000000000000000000000000000000000000000000000081526004016104ff906112e1565b60405180910390fd5b806003015442111561054f576040517f08c379a00000000000000000000000000000000000000000000000000000000081526004016105469061134d565b60405180910390fd5b6000606482600201548360010154610567919061139c565b610571919061140d565b8260010154610580919061143e565b9050600160009054906101000a900473ffffffffffffffffffffffffffffffffffffffff1673ffffffffffffffffffffffffffffffffffffffff166323b872dd3330846040518463ffffffff1660e01b81526004016105e193929190611472565b6020604051808303816000875af1158015610600573d6000803e3d6000fd5b505050506040513d601f19601f8201168201806040525081019061062491906114d5565b610663576040517f08c379a000000000000000000000000000000000000000000000000000000000815260040161065a9061154e565b60405180910390fd5b60018260040160006101000a81548160ff021916908315150217905550600560003373ffffffffffffffffffffffffffffffffffffffff1673ffffffffffffffffffffffffffffffffffffffff16815260200190815260200160002060020160008154809291906106d39061156e565b9190505550600a600560003373ffffffffffffffffffffffffffffffffffffffff1673ffffffffffffffffffffffffffffffffffffffff168152602001908152602001600020600001600082825461072b919061143e565b925050819055503373ffffffffffffffffffffffffffffffffffffffff167fc200a1f31dd659e356e0f112c82558e25f49f7b0f84438691cd96f5cb3558823826040516107789190610f33565b60405180910390a23373ffffffffffffffffffffffffffffffffffffffff167ffc577563f1b9a0461e24abef1e1fcc0d33d3d881f20b5df6dda59de4aae2c821600560003373ffffffffffffffffffffffffffffffffffffffff1673ffffffffffffffffffffffffffffffffffffffff168152602001908152602001600020600001546040516108089190610f33565b60405180910390a2505050565b61081d610dd0565b600160009054906101000a900473ffffffffffffffffffffffffffffffffffffffff1673ffffffffffffffffffffffffffffffffffffffff166323b872dd3330846040518463ffffffff1660e01b815260040161087c93929190611472565b6020604051808303816000875af115801561089b573d6000803e3d6000fd5b505050506040513d601f19601f820116820180604052508101906108bf91906114d5565b6108fe576040517f08c379a00000000000000000000000000000000000000000000000000000000081526004016108f590611602565b60405180910390fd5b8060026000828254610910919061143e565b9250508190555050565b6000600560008373ffffffffffffffffffffffffffffffffffffffff1673ffffffffffffffffffffffffffffffffffffffff168152602001908152602001600020600001549050919050565b60035481565b600160009054906101000a900473ffffffffffffffffffffffffffffffffffffffff1681565b60035461099e3361091a565b10156109df576040517f08c379a00000000000000000000000000000000000000000000000000000000081526004016109d690611694565b60405180910390fd5b82600160009054906101000a900473ffffffffffffffffffffffffffffffffffffffff1673ffffffffffffffffffffffffffffffffffffffff166370a08231306040518263ffffffff1660e01b8152600401610a3b9190610fed565b602060405180830381865afa158015610a58573d6000803e3d6000fd5b505050506040513d601f19601f82011682018060405250810190610a7c9190611228565b1015610abd576040517f08c379a0000000000000000000000000000000000000000000000000000000008152600401610ab490611726565b60405180910390fd5b60008142610acb919061143e565b9050600460003373ffffffffffffffffffffffffffffffffffffffff1673ffffffffffffffffffffffffffffffffffffffff1681526020019081526020016000206040518060a001604052803373ffffffffffffffffffffffffffffffffffffffff16815260200186815260200185815260200183815260200160001515815250908060018154018082558091505060019003906000526020600020906005020160009091909190915060008201518160000160006101000a81548173ffffffffffffffffffffffffffffffffffffffff021916908373ffffffffffffffffffffffffffffffffffffffff16021790555060208201518160010155604082015181600201556060820151816003015560808201518160040160006101000a81548160ff0219169083151502179055505050600560003373ffffffffffffffffffffffffffffffffffffffff1673ffffffffffffffffffffffffffffffffffffffff1681526020019081526020016000206001016000815480929190610c4f9061156e565b9190505550600160009054906101000a900473ffffffffffffffffffffffffffffffffffffffff1673ffffffffffffffffffffffffffffffffffffffff1663a9059cbb33866040518363ffffffff1660e01b8152600401610cb1929190611746565b6020604051808303816000875af1158015610cd0573d6000803e3d6000fd5b505050506040513d601f19601f82011682018060405250810190610cf491906114d5565b503373ffffffffffffffffffffffffffffffffffffffff167f470e775e4fa2bd975947314dc912d0dd85338d809a6b967e36382e32a3b6f2bb858584604051610d3f9392919061110f565b60405180910390a250505050565b610d55610dd0565b600073ffffffffffffffffffffffffffffffffffffffff168173ffffffffffffffffffffffffffffffffffffffff1603610dc4576040517f08c379a0000000000000000000000000000000000000000000000000000000008152600401610dbb906117e1565b60405180910390fd5b610dcd81610e4e565b50565b610dd8610f12565b73ffffffffffffffffffffffffffffffffffffffff16610df6610380565b73ffffffffffffffffffffffffffffffffffffffff1614610e4c576040517f08c379a0000000000000000000000000000000000000000000000000000000008152600401610e439061184d565b60405180910390fd5b565b60008060009054906101000a900473ffffffffffffffffffffffffffffffffffffffff169050816000806101000a81548173ffffffffffffffffffffffffffffffffffffffff021916908373ffffffffffffffffffffffffffffffffffffffff1602179055508173ffffffffffffffffffffffffffffffffffffffff168173ffffffffffffffffffffffffffffffffffffffff167f8be0079c531659141344cd1fd0a4f28419497f9722a3daafe3b4186f6b6457e060405160405180910390a35050565b600033905090565b6000819050919050565b610f2d81610f1a565b82525050565b6000602082019050610f486000830184610f24565b92915050565b600080fd5b610f5c81610f1a565b8114610f6757600080fd5b50565b600081359050610f7981610f53565b92915050565b600060208284031215610f9557610f94610f4e565b5b6000610fa384828501610f6a565b91505092915050565b600073ffffffffffffffffffffffffffffffffffffffff82169050919050565b6000610fd782610fac565b9050919050565b610fe781610fcc565b82525050565b60006020820190506110026000830184610fde565b92915050565b61101181610fcc565b811461101c57600080fd5b50565b60008135905061102e81611008565b92915050565b6000806040838503121561104b5761104a610f4e565b5b60006110598582860161101f565b925050602061106a85828601610f6a565b9150509250929050565b60008115159050919050565b61108981611074565b82525050565b600060a0820190506110a46000830188610fde565b6110b16020830187610f24565b6110be6040830186610f24565b6110cb6060830185610f24565b6110d86080830184611080565b9695505050505050565b6000602082840312156110f8576110f7610f4e565b5b60006111068482850161101f565b91505092915050565b60006060820190506111246000830186610f24565b6111316020830185610f24565b61113e6040830184610f24565b949350505050565b6000819050919050565b600061116b61116661116184610fac565b611146565b610fac565b9050919050565b600061117d82611150565b9050919050565b600061118f82611172565b9050919050565b61119f81611184565b82525050565b60006020820190506111ba6000830184611196565b92915050565b6000806000606084860312156111d9576111d8610f4e565b5b60006111e786828701610f6a565b93505060206111f886828701610f6a565b925050604061120986828701610f6a565b9150509250925092565b60008151905061122281610f53565b92915050565b60006020828403121561123e5761123d610f4e565b5b600061124c84828501611213565b91505092915050565b7f4e487b7100000000000000000000000000000000000000000000000000000000600052603260045260246000fd5b600082825260208201905092915050565b7f4c6f616e20616c7265616479207265706169642e000000000000000000000000600082015250565b60006112cb601483611284565b91506112d682611295565b602082019050919050565b600060208201905081810360008301526112fa816112be565b9050919050565b7f4c6f616e20647565206461746520686173207061737365642100000000000000600082015250565b6000611337601983611284565b915061134282611301565b602082019050919050565b600060208201905081810360008301526113668161132a565b9050919050565b7f4e487b7100000000000000000000000000000000000000000000000000000000600052601160045260246000fd5b60006113a782610f1a565b91506113b283610f1a565b92508282026113c081610f1a565b915082820484148315176113d7576113d661136d565b5b5092915050565b7f4e487b7100000000000000000000000000000000000000000000000000000000600052601260045260246000fd5b600061141882610f1a565b915061142383610f1a565b925082611433576114326113de565b5b828204905092915050565b600061144982610f1a565b915061145483610f1a565b925082820190508082111561146c5761146b61136d565b5b92915050565b60006060820190506114876000830186610fde565b6114946020830185610fde565b6114a16040830184610f24565b949350505050565b6114b281611074565b81146114bd57600080fd5b50565b6000815190506114cf816114a9565b92915050565b6000602082840312156114eb576114ea610f4e565b5b60006114f9848285016114c0565b91505092915050565b7f52657061796d656e74206661696c65642e000000000000000000000000000000600082015250565b6000611538601183611284565b915061154382611502565b602082019050919050565b600060208201905081810360008301526115678161152b565b9050919050565b600061157982610f1a565b91507fffffffffffffffffffffffffffffffffffffffffffffffffffffffffffffffff82036115ab576115aa61136d565b5b600182019050919050565b7f46756e64696e67206661696c65642e0000000000000000000000000000000000600082015250565b60006115ec600f83611284565b91506115f7826115b6565b602082019050919050565b6000602082019050818103600083015261161b816115df565b9050919050565b7f496e73756666696369656e742072657075746174696f6e2073636f726520666f60008201527f72206c6f616e2e00000000000000000000000000000000000000000000000000602082015250565b600061167e602783611284565b915061168982611622565b604082019050919050565b600060208201905081810360008301526116ad81611671565b9050919050565b7f4e6f7420656e6f7567682066756e647320696e20746865206c6f616e20706f6f60008201527f6c2e000000000000000000000000000000000000000000000000000000000000602082015250565b6000611710602283611284565b915061171b826116b4565b604082019050919050565b6000602082019050818103600083015261173f81611703565b9050919050565b600060408201905061175b6000830185610fde565b6117686020830184610f24565b9392505050565b7f4f776e61626c653a206e6577206f776e657220697320746865207a65726f206160008201527f6464726573730000000000000000000000000000000000000000000000000000602082015250565b60006117cb602683611284565b91506117d68261176f565b604082019050919050565b600060208201905081810360008301526117fa816117be565b9050919050565b7f4f776e61626c653a2063616c6c6572206973206e6f7420746865206f776e6572600082015250565b6000611837602083611284565b915061184282611801565b602082019050919050565b600060208201905081810360008301526118668161182a565b905091905056fea26469706673582212206ac7dc45303b5a86a5af2af99bc22955ff84d11f94908c8b8f34380763c06c0064736f6c63430008140033",
  "linkReferences": {},
  "deployedLinkReferences": {}
}